:100000000C945C000C9479000C9479000C947900A9
:100010000C9479000C9479000C9479000C9479007C
:100020000C9479000C9479000C9479000C9479006C
:100030000C9479000C9479000C9479000C9479005C
:100040000C94E4010C9479000C942E020C94790029
:100050000C9479000C9479000C9479000C9479003C
:100060000C9479000C947900000000002400270013
:100070002A0000000000250028002B0004040404CE
:100080000404040402020202020203030303030342
:10009000010204081020408001020408102001021F
:1000A00004081020000000080002010000030407FB
:1000B000000000000000000011241FBECFEFD8E0B8
:1000C000DEBFCDBF12E0A0E0B1E0E6E6FDE002C099
:1000D00005900D92A23BB107D9F725E0A2EBB2E063
:1000E00001C01D92AC33B207E1F70E9493030C9458
:1000F000B1060C940000EAEAF0E02491E6E9F0E0B1
:100100009491E2E8F0E0E491EE2309F43BC022236D
:1001100039F1233091F038F42130A9F0223001F583
:1001200024B52F7D12C0273091F02830A1F0243063
:10013000B9F4209180002F7D03C0209180002F779B
:10014000209380000DC024B52F7724BD09C02091D5
:10015000B0002F7703C02091B0002F7D2093B00016
:10016000F0E0EE0FFF1FEE58FF4FA591B4912FB7AF
:10017000F894EC91811103C090959E2301C09E2BB1
:100180009C932FBF08952FB7F894609179037091D5
:100190007A0380917B0390917C032FBF0895909107
:1001A000C00095FFFCCF8093C6000895CF93DF93E6
:1001B000EC018991882319F00E94CF00FACF8DE0DD
:1001C0000E94CF008AE0DF91CF910C94CF00CF93B3
:1001D000DF93EC018991882319F00E94CF00FACFB8
:1001E000DF91CF910895EF92FF920F931F93CF93DA
:1001F000DF9300D000D0CDB7DEB769837A838B83DD
:100200009C83CE0101967C0106E010E0F70161912C
:100210007F01C8010E94A3060F5F1F4F0A3011051E
:10022000A9F70F900F900F900F90DF91CF911F9132
:100230000F91FF90EF9008950F931F93CF93DF934B
:10024000EC01FC0101900020E9F731978F01081BB8
:10025000190B612F89E190E00E94A306602F8AE1CB
:1002600090E00E94A3060BE110E06991662331F053
:10027000C8010E94A3060F5F1F4FF7CFDF91CF91F8
:100280001F910F9108954198EFE9F1E03197F1F74F
:1002900000C0000040E050E0682F880F770B98B155
:1002A0009B01042E02C0359527950A94E2F7220F90
:1002B000822F8270982B98B998B12D6F292328B975
:1002C0008FE991E00197F1F700C000004F5F5F4FA9
:1002D0004830510521F7419AEFE8F1E03197F1F705
:1002E00000C0000008957F928F929F92AF92BF92BC
:1002F000CF92DF92EF92FF920F931F93CF93DF93F2
:1003000000D000D0CDB7DEB77C016B0110E07724C0
:1003100073941017C1F1C70129833A834B835C831F
:100320000E94D600B60186E593E00E947A060E94FC
:10033000C3004B015C017092550329813A814B81C6
:100340005C8129833A834B835C830E94C300DC0178
:10035000CB0188199909AA09BB0929813A814B81E6
:100360005C8182179307A407B50738F48091540382
:10037000882339F31092540307C01F5F109254036F
:1003800010925503C6CF80E00F900F900F900F9002
:10039000DF91CF911F910F91FF90EF90DF90CF9061
:1003A000BF90AF909F908F907F9008950F9302E041
:1003B00020ED37E040E050E064E071E087E091E05C
:1003C0000E9473010F9108951F920F920FB60F9222
:1003D00011242F933F938F939F93AF93BF9380915B
:1003E000790390917A03A0917B03B0917C033091C3
:1003F000780323E0230F2D3720F40196A11DB11DB2
:1004000005C026E8230F0296A11DB11D2093780395
:100410008093790390937A03A0937B03B0937C033A
:100420008091740390917503A0917603B091770346
:100430000196A11DB11D8093740390937503A09341
:100440007603B0937703BF91AF919F918F913F91C6
:100450002F910F900FBE0F901F9018951F920F9223
:100460000FB60F9211240F931F932F933F934F9327
:100470005F936F937F938F939F93AF93BF93CF932C
:10048000DF93EF93FF938091C600E091B2028D302D
:10049000A9F08A3099F0882389F0AE2F0E2E000C37
:1004A000BB0BAC54BD4F8C93EF5FE093B2020E2EAA
:1004B000000CFF0BEC54FD4F108220C10E2E000CDF
:1004C000FF0BEC54FD4F10821092B2026CE872E008
:1004D00084EB92E00E948106892B21F081E08093D9
:1004E000B30220C065E972E084EB92E00E948106CD
:1004F000009739F0845B9240A9F481E0809337053E
:100500000DC061E972E084EB92E00E9481060097E1
:1005100049F0845B924031F41092370584E091E019
:100520000E94D6008091B302882309F457C06AE97B
:1005300072E084EB92E00E9481060097B1F0FC012A
:100540003496ACE3B4E0CD018C5394402191233236
:1005500011F02D93F8CFFC01E45CFB4F10828CE38B
:1005600094E00E941C011092B3026FE972E084EBE8
:1005700092E00E948106009789F1EC01249620E028
:1005800030E0A901E991E332A9F0AAE0B0E00E94CD
:1005900060060E2E000CFF0BAF01405351098A017B
:1005A000550F220B330BA9019801260F371F481F47
:1005B000591FE8CF209300013093010140930201BD
:1005C000509303016091000170910101809102013B
:1005D000909103010E94F3001092B30280913705BD
:1005E000882309F457C06AE972E084EB92E00E9424
:1005F0008106009789F0845B924071F468EB72E0A9
:100600008CE394E00E947A068CE394E00E941C0143
:1006100084E091E00E94D6006FE972E084EB92E002
:100620000E9481060097B1F1845B924099F5C8EB76
:10063000D2E020E030E0A901E991E332A9F0AAE09C
:10064000B0E00E9460064E2FEE0F550B9A0120532A
:1006500031098901330F220B330BA9019801260FB1
:10066000371F481F591FE8CF209300013093010125
:1006700040930201509303016091000170910101C8
:1006800080910201909103010E94F30084E091E0C7
:100690000E94D60080915503882381F180917D03CB
:1006A000882369F08091B40280538A3040F464EB6F
:1006B00072E08EE793E00E947A0610927D0364EA6E
:1006C00072E084EB92E00E948106009751F0BC0139
:1006D000665F7F4F8CE993E00E947A0681E0809309
:1006E000360566E573E084EB92E00E948106892B73
:1006F00029F081E08093540310925503FF91EF910C
:10070000DF91CF91BF91AF919F918F917F916F9129
:100710005F914F913F912F911F910F910F900FBEBD
:100720000F901F901895CF93DF9300D000D0CDB7D6
:10073000DEB7789484B5826084BD84B5816084BD61
:1007400085B5826085BD85B5816085BD80916E006F
:10075000816080936E0010928100809181008260A0
:1007600080938100809181008160809381008091DD
:1007700080008160809380008091B10084608093CC
:10078000B1008091B00081608093B00080917A00C8
:10079000846080937A0080917A00826080937A00EE
:1007A00080917A00816080937A0080917A008068DD
:1007B00080937A001092C1001092C00088E9809363
:1007C000C10086E88093C2001092C50087E680933E
:1007D000C400399A419A789482E090E00E949B0686
:1007E0008F3399F08CE091E00E941C016091000130
:1007F0007091010180910201909103010E94F30028
:100800006FE382E090E00E94A30689E190E00E94FD
:100810009B06082F880F110B102F00278AE190E00C
:100820000E949B06080F111D87FD1A955CE3C52EDB
:1008300054E0D52EE12CF12CA02E002E000CBB088C
:10084000EA14FB045CF4C7014B960E949B06F60178
:1008500081936F01FFEFEF1AFF0AF2CFE02F07FD40
:10086000E0E00E2E000CFF0BE45CFB4F10821982BF
:100870001A821B821C82CE0101967C0100E010E0EE
:10088000C80106960E949B06F70181937F010F5FC6
:100890001F4F04301105A1F789819A81AB81BC817A
:1008A0008093000190930101A0930201B093030192
:1008B000E6E9F0E02491E2E8F0E08491882399F001
:1008C00090E0880F991FFC01E859FF4FA591B49162
:1008D000FC01EE58FF4F859194918FB7F894EC91FD
:1008E000E22BEC938FBF81E00E947B00FFEF21EEB3
:1008F00084E0F15020408040E1F700C0000080E03B
:100900000E947B009FEFE0E7F2E09150E040F04072
:10091000E1F700C0000081E00E947B002FEF83ED33
:1009200090E3215080409040E1F700C0000080E05B
:100930000E947B00EFEFF0E722E0E150F040204022
:10094000E1F700C0000081E00E947B008FEF91EE94
:10095000E4E081509040E040E1F700C0000080E01A
:100960000E947B0001E020ED37E040E050E064E0D1
:1009700071E082E391E00E947301882399F301E022
:1009800020ED37E040E050E065E371E080E491E085
:100990000E94730181110AC0FFEF29E688E1F1503E
:1009A00020408040E1F700C00000E9CF0E94D6015E
:1009B0009FEFE3EDF0E39150E040F040E1F700C03D
:1009C000000002E020ED37E040E050E064E071E03C
:1009D00089E491E00E94730181E080937D0301E04E
:1009E00020ED37E040E050E064E071E08EE491E01B
:1009F0000E9473010E94D60105E511E0F801819182
:100A00008F01882319F00E944301F8CF0EE713E00D
:100A1000F80181918F01882319F00E944301F8CFDA
:100A20008DE00E9443018AE00E944301FFEF23ED25
:100A300080E3F15020408040E1F700C0000001E079
:100A400020ED37E040E050E064E071E08BE591E0BC
:100A50000E94730120ED37E040E050E064E071E077
:100A60008DE691E00E94730128E833E140E050E018
:100A700064E071E087E791E00E94730120ED37E0C8
:100A800040E050E064E871E080E991E00E94730189
:100A9000882369F028EE3DEF40E050E064E071E02B
:100AA0008DE991E00E9473018823E9F101C001E022
:100AB00020E137E240E050E064E071E08AEA91E052
:100AC0000E947301882379F101E020E137E240E0E0
:100AD00050E064E071E085EB91E00E9473018823AF
:100AE00011F120ED37E040E050E064E071E080EC8F
:100AF00091E00E9473018823B1F020ED37E040E0DF
:100B000050E064E071E08EED91E00E947301882373
:100B100051F028E03CE441E050E064E071E088E01E
:100B200092E00E94730180E0A82E80E0B82E0E941F
:100B3000C3006B017C0140903805509039056090EE
:100B40003A0570903B05641575058605970549F0D3
:100B50000E94C3006B017C01C418D508E608F708A1
:100B600006C00E94C300C61AD70AE80AF90A809193
:100B7000000190910101A0910201B0910301C816FA
:100B8000D906EA06FB0608F494C080913705811166
:100B900086C001E028E833E140E050E064E071E025
:100BA00085E192E00E94730180913605882309F463
:100BB00076C028EE33E040E050E064E071E080E28F
:100BC00092E00E947301811102C010E048C001E070
:100BD00020ED37E040E050E064E071E08CE292E02C
:100BE0000E947301882389F302E020ED37E040E0A2
:100BF00050E064E071E089E491E00E94730180E4D8
:100C000092E00E94E7008CE394E00E94E70084E514
:100C100092E00E94E7008EE793E00E94E7008AE5F9
:100C200092E00E94E7008CE993E00E94E70001E077
:100C300020E137E240E050E064E071E082E592E0DC
:100C40000E947301882309F220E63AEE40E050E06A
:100C500061E672E080E792E00E947301182F0E9423
:100C6000D60103E020ED37E040E050E064E071E0C1
:100C700080E892E00E947301112379F081E00E94E4
:100C80007B009FEFE6E7F1E09150E040F040E1F7B4
:100C900000C0000080E00E947B00109236050E9498
:100CA000C300609338057093390580933A0590939B
:100CB0003B05A114B10409F43ACF0E94000037CFDC
:100CC0000E946B06A59F900DB49F900DA49F800D70
:100CD000911D11240895A29FB001B39FC001A39F4D
:100CE000700D811D1124911DB29F700D811D112465
:100CF000911D0895FB01DC0101900D920020E1F7A8
:100D00000895FB0151915523A9F0BF01DC014D91DC
:100D100045174111E1F759F4CD010190002049F048
:100D20004D9140154111C9F3FB014111EFCF81E015
:100D300090E001970895F999FECF92BD81BDF89A90
:100D4000992780B50895262FF999FECF1FBA92BD35
:100D500081BD20BD0FB6F894FA9AF99A0FBE01969C
:060D60000895F894FFCF96
:100D6600960000004F4B004154453100656C656D9F
:100D7600656E747A7465616D2E636F6D2F6574721E
:100D860061636B65722F6770732F696E736572741A
:100D96003F004154002B435245473A20302C310046
:100DA60041542B435245473F00415445300041547E
:100DB6002B47534E00494D45493A0041542B434E6B
:100DC6004D493D322C322C302C302C300041542BE6
:100DD600434D47463D310041542B43474E535057F0
:100DE600523D31002B53415042523A20312C3100B2
:100DF60041542B53415042523D322C310041542B29
:100E060053415042523D302C310041542B4347410F
:100E160054543D300041542B43474154543D310016
:100E260041542B53415042523D332C312C22436FB7
:100E36006E74797065222C22475052532200415419
:100E46002B53415042523D332C312C2241504E22DD
:100E56002C225757572E4D5941495254454C47500D
:100E660052532E434F4D220041542B534150425270
:100E76003D312C310041542B43474E53494E4600D9
:100E860041542B48545450494E49540041542B4820
:100E9600545450504152413D22434944222C310082
:100EA60041542B48545450504152413D2255524CC6
:100EB600222C2200696D65693D0026646174613DDE
:100EC600002B48545450414354494F4E3A20300069
:100ED60041542B48545450414354494F4E3D3000E1
:100EE60041542B485454505445524D002B434D54B5
:100EF6000053544F50434F4E460055524C3A00440F
:100F060055523A002B43474E53494E463A20312C10
:020F16003100A8
:00000001FF
