:100000000C9461000C947E000C947E000C947E0095
:100010000C947E000C947E000C947E000C947E0068
:100020000C947E000C947E000C947E000C947E0058
:100030000C947E000C947E000C947E000C947E0048
:100040000C9419020C947E000C9463020C947E00B4
:100050000C947E000C947E000C947E000C947E0028
:100060000C947E000C947E0000000000230026000B
:10007000290000000008000201000003040700003E
:1000800000000000000000000000250028002B00F8
:1000900000000000240027002A00040404040404D3
:1000A0000404020202020202030303030303010227
:1000B00004081020408001020408102001020408F6
:1000C000102011241FBECFEFD8E0DEBFCDBF12E05D
:1000D000A0E0B1E0EAE6FEE002C005900D92A23B8E
:1000E000B107D9F725E0A2EBB2E001C01D92A93C0F
:1000F000B207E1F70E94E5030C9433070C9400006B
:1001000090E0FC01E255FF4F2491FC01E656FF4FC1
:100110008491882399F090E0880F991FFC01E057A3
:10012000FF4FA591B491FC01EA57FF4F859194913F
:100130008FB7F894EC91E22BEC938FBF0895833046
:1001400081F028F4813099F08230A1F00895873051
:10015000A9F08830B9F08430D1F4809180008F7D8F
:1001600003C0809180008F7780938000089584B5CC
:100170008F7702C084B58F7D84BD08958091B000D3
:100180008F7703C08091B0008F7D8093B000089579
:100190001F93CF93DF93282F30E0F901EE58FF4FE4
:1001A0008491F901E255FF4FD491F901E656FF4FD2
:1001B000C491CC23C9F0162F81110E949F00EC2F0F
:1001C000F0E0EE0FFF1FEA57FF4FA591B4918FB7F4
:1001D000F894111105C09C91ED2FE095E92302C020
:1001E000EC91ED2BEC938FBFDF91CF911F91089590
:1001F0002FB7F89460910604709107048091080469
:10020000909109042FBF08959091C00095FFFCCFF5
:100210008093C6000895CF93DF93EC0189918823E2
:1002200019F00E940401FACF8DE00E9404018AE0D7
:10023000DF91CF910C940401CF93DF93EC0189916E
:10024000882319F00E940401FACFDF91CF9108951D
:10025000EF92FF920F931F93CF93DF9300D000D0C4
:10026000CDB7DEB769837A838B839C83CE010196F9
:100270007C0106E010E0F70161917F01C8010E9456
:1002800025070F5F1F4F0A301105A9F70F900F9038
:100290000F900F90DF91CF911F910F91FF90EF90F2
:1002A00008950F931F93CF93DF93EC01FC0101900E
:1002B0000020E9F731978F01081B190B612F89E1A5
:1002C00090E00E942507602F8AE190E00E942507B8
:1002D0000BE110E06991662331F0C8010E94250707
:1002E0000F5F1F4FF7CFDF91CF911F910F910895AF
:1002F0004198EFE9F1E03197F1F700C0000040E0EC
:1003000050E0682F880F770B98B19B01042E02C034
:10031000359527950A94E2F7220F822F8270982B49
:1003200098B998B12D6F292328B98FE991E00197E9
:10033000F1F700C000004F5F5F4F4830510521F7D3
:10034000419AEFE8F1E03197F1F700C0000008951D
:100350007F928F929F92AF92BF92CF92DF92EF9255
:10036000FF920F931F93CF93DF9300D000D0CDB7B0
:10037000DEB77C016B0110E0772473941017C1F194
:10038000C70129833A834B835C830E940B01B6012A
:1003900083EE93E00E94FC060E94F8004B015C0192
:1003A0007092E20329813A814B815C8129833A83EF
:1003B0004B835C830E94F800DC01CB01881999090A
:1003C000AA09BB0929813A814B815C818217930775
:1003D000A407B50738F48091E103882339F310921C
:1003E000E10307C01F5F1092E1031092E203C6CF42
:1003F00080E00F900F900F900F90DF91CF911F91A1
:100400000F91FF90EF90DF90CF90BF90AF909F90B3
:100410008F907F9008950F9302E020ED37E040E049
:1004200050E064E071E087E091E00E94A8010F9144
:1004300008951F920F920FB60F9211242F933F939E
:100440008F939F93AF93BF9380910604909107047D
:10045000A0910804B09109043091050423E0230F12
:100460002D3720F40196A11DB11D05C026E8230FEC
:100470000296A11DB11D209305048093060490935C
:100480000704A0930804B09309048091010490919B
:100490000204A0910304B09104040196A11DB11DB2
:1004A0008093010490930204A0930304B093040486
:1004B000BF91AF919F918F913F912F910F900FBE60
:1004C0000F901F9018951F920F920FB60F92112444
:1004D0000F931F932F933F934F935F936F937F934C
:1004E0008F939F93AF93BF93CF93DF93EF93FF933C
:1004F0002091C6008091B2029091B3022D30B1F0EC
:100500002A30A1F0222391F08B3231E0930790F44E
:10051000FC01EB54FD4F208301969093B30280932E
:10052000B202FC01EB54FD4F10823AC1FC01EB54C6
:10053000FD4F10821092B3021092B2026FE972E086
:1005400085EB92E00E940307892B21F081E08093E4
:10055000B40220C060E972E085EB92E00E940307DC
:10056000009739F0855B9240A9F481E08093C4053F
:100570000DC06CE872E085EB92E00E9403070097E3
:1005800049F0855B924031F41092C40584E091E01B
:100590000E940B018091B402882309F471C065E9BF
:1005A00072E085EB92E00E9403070097B1F0FC0136
:1005B0003496A9ECB4E0CD01895C944021912332BA
:1005C00011F02D93F8CFFC01E753FB4F108289EC1B
:1005D00094E00E9451011092B4026AE972E085EB46
:1005E00092E00E940307009789F1EC01249620E035
:1005F00030E0A901E991E332A9F0AAE0B0E00E945D
:10060000E2060E2E000CFF0BAF01405351098A0188
:10061000550F220B330BA9019801260F371F481FD6
:10062000591FE8CF2093000130930101409302014C
:1006300050930301609100017091010180910201CA
:10064000909103010E9428011092B4026FE972E0B8
:1006500085EB92E00E940307892B91F465E972E033
:1006600085EB92E00E940307892B51F46AE972E05E
:1006700085EB92E00E940307892B11F41092B402DB
:100680008091C405882309F457C065E972E085EBC1
:1006900092E00E940307009789F0855B924071F415
:1006A00069EB72E089EC94E00E94FC0689EC94E02E
:1006B0000E94510184E091E00E940B016AE972E01E
:1006C00085EB92E00E9403070097B1F1855B9240B1
:1006D00099F5C9EBD2E020E030E0A901E991E332DD
:1006E000A9F0AAE0B0E00E94E2064E2FEE0F550BF3
:1006F0009A01205331098901330F220B330BA901D1
:100700009801260F371F481F591FE8CF209300017B
:100710003093010140930201509303016091000165
:100720007091010180910201909103010E942801C2
:1007300084E091E00E940B018091E203882381F123
:1007400080910A04882369F08091B50280538A3031
:1007500040F465EB72E08BE094E00E94FC0610929E
:100760000A0464EA72E085EB92E00E9403070097B6
:1007700051F0BC01665F7F4F89E294E00E94FC0665
:1007800081E08093C30563EE73E085EB92E00E9405
:100790000307892B29F081E08093E1031092E203A3
:1007A000FF91EF91DF91CF91BF91AF919F918F9189
:1007B0007F916F915F914F913F912F911F910F9179
:1007C0000F900FBE0F901F901895CF93DF9300D01E
:1007D00000D0CDB7DEB7789484B5826084BD84B58F
:1007E000816084BD85B5826085BD85B5816085BD2C
:1007F00080916E00816080936E00109281008091E4
:10080000810082608093810080918100816080936B
:100810008100809180008160809380008091B10090
:1008200084608093B1008091B00081608093B000BB
:1008300080917A00846080937A0080917A0082604F
:1008400080937A0080917A00816080937A00809111
:100850007A00806880937A001092C1001092C000E4
:1008600088E98093C10086E88093C2001092C50099
:1008700087E68093C400399A419A789482E090E0A8
:100880000E941D078F3399F08CE091E00E94510186
:10089000609100017091010180910201909103012A
:1008A0000E9428016FE382E090E00E94250789E121
:1008B00090E00E941D07082F880F110B102F0027B2
:1008C0008AE190E00E941D07080F111D87FD1A950F
:1008D00079ECC72E74E0D72EE12CF12CA02E002E3F
:1008E000000CBB08EA14FB045CF4C7014B960E94A1
:1008F0001D07F60181936F01FFEFEF1AFF0AF2CF98
:10090000E02F07FDE0E00E2E000CFF0BE753FB4F3E
:10091000108219821A821B821C82CE0101967C01F0
:1009200000E010E0C80106960E941D07F7018193C0
:100930007F010F5F1F4F04301105A1F789819A8154
:10094000AB81BC818093000190930101A0930201CF
:10095000B093030188E00E94800089E00E9480003B
:1009600061E08DE00E94C800FFEF21EE84E0F150CD
:1009700020408040E1F700C0000060E08DE00E9470
:10098000C8009FEFE0E7F2E09150E040F040E1F76F
:1009900000C0000061E08DE00E94C8002FEF83EDF1
:1009A00090E3215080409040E1F700C0000060E0FB
:1009B0008DE00E94C800EFEFF0E722E0E150F04048
:1009C0002040E1F700C0000061E08DE00E94C80017
:1009D0008FEF91EEE4E081509040E040E1F700C0FD
:1009E000000060E08DE00E94C80001E020ED37E0EB
:1009F00040E050E064E071E082E391E00E94A801F1
:100A0000882399F328E833E140E050E064E071E0A6
:100A100085E391E00E94A8013AE7E32E30E0F32E4F
:100A200046EBC42E40E0D42E52EAA52E50E0B52E5F
:100A300001E020ED37E040E050E062E471E08DE459
:100A400091E00E94A80181112EC0F7018491F60166
:100A50000491F50114911123A9F081110E949F00C6
:100A6000812F90E0880F991F88599F4FFC01A59115
:100A7000B4918C91082391E080E009F490E0692F13
:100A8000782F02C060E070E0F1E06F2788E00E94FC
:100A9000C8002FEF89E698E1215080409040E1F7AF
:100AA00000C00000C5CF61E088E00E94C8000E943D
:100AB0000B02EFEFF3ED20E3E150F0402040E1F7CF
:100AC00000C0000002E020ED37E040E050E064E0CC
:100AD00071E086E591E00E94A80181E080930A041C
:100AE00001E020ED37E040E050E064E071E08BE5AC
:100AF00091E00E94A8010E940B0202E611E0F801B9
:100B000081918F01882319F00E947801F8CF0BE0C2
:100B100014E0F80181918F01882319F00E94780177
:100B2000F8CF8DE00E9478018AE00E947801FFEF03
:100B300023ED80E3F15020408040E1F700C0000049
:100B400001E020ED37E040E050E064E071E088E64D
:100B500091E00E94A80120ED37E040E050E064E021
:100B600071E08AE791E00E94A80120ED37E040E0C3
:100B700050E064E871E080E991E00E94A8018823D8
:100B800069F028EE3DEF40E050E064E071E08DE96F
:100B900091E00E94A8018823E9F101C001E020E171
:100BA00037E240E050E064E071E08AEA91E00E94C0
:100BB000A801882379F101E020E137E240E050E02C
:100BC00064E071E085EB91E00E94A801882311F1B7
:100BD00020ED37E040E050E064E071E080EC91E02F
:100BE0000E94A8018823B1F020ED37E040E050E0FA
:100BF00064E071E08EED91E00E94A801882351F03D
:100C000028E03CE441E050E064E071E088E092E0FC
:100C10000E94A80180E0A82E80E0B82E0E94F80073
:100C20006B017C014090C5055090C6056090C705DA
:100C30007090C805641575058605970549F00E94F2
:100C4000F8006B017C01C418D508E608F70806C057
:100C50000E94F800C61AD70AE80AF90A8091000132
:100C600090910101A0910201B0910301C816D9062B
:100C7000EA06FB0608F49FC08091C405811191C06B
:100C800001E028E833E140E050E064E071E085E114
:100C900092E00E94A8018091C305882309F47DC0D9
:100CA00061E089E00E94C80028EE33E040E050E0B7
:100CB00064E071E080E292E00E94A801811102C02C
:100CC00010E048C001E020ED37E040E050E064E093
:100CD00071E08CE292E00E94A801882389F302E08F
:100CE00020ED37E040E050E064E071E086E591E01F
:100CF0000E94A80180E492E00E941C0189EC94E02B
:100D00000E941C0184E592E00E941C018BE094E0AB
:100D10000E941C018AE592E00E941C0189E294E095
:100D20000E941C0101E020E137E240E050E064E075
:100D300071E082E592E00E94A801882309F220E692
:100D40003AEE40E050E061E672E080E792E00E9417
:100D5000A801182F0E940B0203E020ED37E040E0CD
:100D600050E064E071E080E892E00E94A801112365
:100D700089F060E088E00E94C8009FEFE6E7F1E0BC
:100D80009150E040F040E1F700C0000061E088E0F1
:100D90000E94C8001092C30504C060E089E00E9470
:100DA000C8000E94F8006093C5057093C605809343
:100DB000C7059093C805A114B10409F42FCF0E9470
:100DC00000002CCF0E94ED06A59F900DB49F900DC2
:100DD000A49F800D911D11240895A29FB001B39F7F
:100DE000C001A39F700D811D1124911DB29F700D34
:100DF000811D1124911D0895FB01DC0101900D92CC
:100E00000020E1F70895FB0151915523A9F0BF019E
:100E1000DC014D9145174111E1F759F4CD010190E5
:100E2000002049F04D9140154111C9F3FB014111DA
:100E3000EFCF81E090E001970895F999FECF92BD40
:100E400081BDF89A992780B50895262FF999FECF8C
:100E50001FBA92BD81BD20BD0FB6F894FA9AF99AD7
:0A0E60000FBE01960895F894FFCF2D
:100E6A00960000004F4B004154453100656C656D9A
:100E7A00656E747A7465616D2E636F6D2F65747219
:100E8A0061636B65722F6770732F696E7365727415
:100E9A003F0041540041542B43474E535057523D53
:100EAA0031002B435245473A20302C310041542B14
:100EBA00435245473F00415445300041542B475364
:100ECA004E00494D45493A0041542B434E4D493D48
:100EDA00322C322C302C302C300041542B434D47CD
:100EEA00463D31002B53415042523A20312C3100B9
:100EFA0041542B53415042523D322C310041542B24
:100F0A0053415042523D302C310041542B4347410A
:100F1A0054543D300041542B43474154543D310011
:100F2A0041542B53415042523D332C312C22436FB2
:100F3A006E74797065222C22475052532200415414
:100F4A002B53415042523D332C312C2241504E22D8
:100F5A002C225757572E4D5941495254454C475008
:100F6A0052532E434F4D220041542B53415042526B
:100F7A003D312C310041542B43474E53494E4600D4
:100F8A0041542B48545450494E49540041542B481B
:100F9A00545450504152413D22434944222C31007D
:100FAA0041542B48545450504152413D2255524CC1
:100FBA00222C2200696D65693D0026646174613DD9
:100FCA00002B48545450414354494F4E3A20300064
:100FDA0041542B48545450414354494F4E3D3000DC
:100FEA0041542B485454505445524D0053544F5079
:100FFA00434F4E460055524C3A004455523A002B44
:10100A00434D54002B43474E53494E463A20312C08
:02101A003100A3
:00000001FF
