:100000000C9471000C948E000C948E000C948E0055
:100010000C948E000C948E000C948E000C948E0028
:100020000C948E000C948E000C948E000C948E0018
:100030000C948E000C948E000C948E000C948E0008
:100040000C94A1030C948E000C94EB030C948E0082
:100050000C948E000C948E000C948E000C948E00E8
:100060000C948E000C948E000101800000414553D9
:100070002D31323800000000002300260029000046
:100080000000080002010000030407000000000057
:1000900000000001006D00B0008000880A840804A0
:1000A000060000680000000000250028002B00006A
:1000B000000000240027002A0004040404040404AF
:1000C0000402020202020203030303030301020407
:1000D00008102040800102040810200102040810CA
:1000E000200011241FBECFEFD8E0DEBFCDBF27E038
:1000F000AEE6B3E001C01D92A636B207E1F713E009
:10010000A0E0B1E0E0E3F2E202C005900D92AE366D
:10011000B107D9F70E948C0B0C9416110C940000B7
:1001200090E0FC01E353FF4F2491FC01E754FF4FA3
:100130008491882399F090E0880F991FFC01E15584
:10014000FF4FA591B491FC01EB55FF4F8591949120
:100150008FB7F894EC91E22BEC938FBF0895833026
:1001600081F028F4813099F08230A1F00895873031
:10017000A9F08830B9F08430D1F4809180008F7D6F
:1001800003C0809180008F7780938000089584B5AC
:100190008F7702C084B58F7D84BD08958091B000B3
:1001A0008F7703C08091B0008F7D8093B000089559
:1001B0001F93CF93DF93282F30E0F901E158FF4FD1
:1001C0008491F901E353FF4FD491F901E754FF4FB4
:1001D000C491CC23C9F0162F81110E94AF00EC2FDF
:1001E000F0E0EE0FFF1FEB55FF4FA591B4918FB7D5
:1001F000F894111105C09C91ED2FE095E92302C000
:10020000EC91ED2BEC938FBFDF91CF911F9108956F
:100210003FB7F8948091380490913904A0913A0442
:10022000B0913B0426B5A89B05C02F3F19F001965D
:10023000A11DB11D3FBFBA2FA92F982F8827820F6C
:10024000911DA11DB11DBC01CD0142E0660F771FBC
:10025000881F991F4A95D1F708952FB7F894609198
:1002600034047091350480913604909137042FBF87
:1002700008959091C00095FFFCCF8093C60008952B
:10028000CF93DF93EC018991882319F00E94390103
:10029000FACFDF91CF910895EF92FF920F931F93C2
:1002A000CF93DF9300D000D0CDB7DEB769837A83D8
:1002B0008B839C83CE0101967C0106E010E0F70160
:1002C00061917F01C8010E94780F0F5F1F4F0A30B4
:1002D0001105A9F70F900F900F900F90DF91CF911C
:1002E0001F910F91FF90EF9008954198EFE9F1E091
:1002F0003197F1F700C0000040E050E0682F880F10
:10030000770B98B19B01042E02C0359527950A946E
:10031000E2F7220F822F8270982B98B998B12D6F37
:10032000292328B98FE991E00197F1F700C0000077
:100330004F5F5F4F4830510521F7419AEFE8F1E0F8
:100340003197F1F700C000000895CF93DF93EC01DF
:100350008991882319F00E947501FACF8DE00E94DF
:1003600075018AE0DF91CF910C947501EF92FF92B5
:100370000F931F93CF93DF93EC018B01FB0101904F
:100380000020E9F731977F01E61AF70A6F2D0E94E6
:10039000780F6E2DCE0101960E94780F2296F801FB
:1003A00061918F01662329F0CE010E94780F21967A
:1003B000F6CFDF91CF911F910F91FF90EF900895AD
:1003C0008F929F92AF92BF92CF92DF92EF92FF9265
:1003D0000F931F93CF93DF9300D000D0CDB7DEB73C
:1003E0007C016B0110E0101709F45BC05701F501A7
:1003F00081915F01882359F029833A834B835C8381
:100400000E9439015C814B813A812981F0CF8DE0D6
:1004100029833A834B835C830E9439018AE00E94DE
:100420003901B60180E993E00E94F5100E942D0188
:100430004B015C018091EE0681608093EE0629817C
:100440003A814B815C8129833A834B835C830E9490
:100450002D01DC01CB0188199909AA09BB09298161
:100460003A814B815C8182179307A407B50768F432
:100470009091EE0691FB882780F991FFE4CF90914F
:10048000EE069D7F9093EE060DC01F5F8091EE06F5
:100490008D7F8093EE068091EE068E7F8093EE0630
:1004A000A2CF80E00F900F900F900F90DF91CF912F
:1004B0001F910F91FF90EF90DF90CF90BF90AF9082
:1004C0009F908F9008950F938CE291E00E944001DD
:1004D0008EEF96E00E9440018CE391E00E94400183
:1004E00084EF96E00E94400101E020E031E742E025
:1004F00050E06CEF72E08EE391E00E94E0010F911A
:1005000008950F9301E028E833E140E050E06EE603
:1005100072E080E491E00E94E0018823B9F028E0D5
:100520003CE441E050E06EE672E080E591E00E943C
:10053000E001882359F028E833E140E050E069E524
:1005400071E08BE591E00E94E00100C00F910895F9
:100550000F9301E028EE3DEF40E050E064E671E0EB
:100560008CE691E00E94E0018823E9F020ED37E07D
:1005700040E050E067E771E081E891E00E94E0012F
:1005800081110AC020E137E240E050E06EE672E0FF
:100590008BE891E00E94E0010E948102882319F01B
:1005A0000F910C94630280E00F9108950F9302E085
:1005B00020ED37E040E050E06EE672E086E991E041
:1005C0000E94E0010F910895AF92BF92CF92DF9207
:1005D000EF92FF920F931F93CF93DF938C017B01D8
:1005E0000E94700FC82F880FDD0BDC2FCC27C801AD
:1005F00001960E94700FC80FD11D87FDDA950E5F1E
:100600001F4F6701AC2E0C2E000CBB08C6018E19C3
:100610009F098A159B054CF4C8010E94700FF601D2
:1006200081936F010F5F1F4FF1CFC7FDC0E0F7014E
:10063000EC0FF11DC7FDFA951082DF91CF911F914C
:100640000F91FF90EF90DF90CF90BF90AF90089503
:10065000EF92FF920F931F93CF93DF9300D000D0C0
:10066000CDB7DEB782E090E00E94700F803209F1D2
:100670006BE971E083E290E00E94B60167EA71E005
:1006800089E190E00E94B6016CEA71E081E490E0BB
:100690000E94B60160912201709123018091240192
:1006A000909125010E944C0160E282E090E00E945E
:1006B000780F6EEF76E083E290E00E94E40264EF50
:1006C00076E089E190E00E94E40262E773E081E471
:1006D00090E00E94E40260912201709123018091D8
:1006E0002401909125010E944C0119821A821B82DB
:1006F0001C82CE0101967C0100E010E0C801069644
:100700000E94700FF70181937F010F5F1F4F04302C
:100710001105A1F789819A81AB81BC818093220167
:1007200090932301A0932401B09325010F900F9083
:100730000F900F90DF91CF911F910F91FF90EF904D
:1007400008951F920F920FB60F9211242F933F938B
:100750008F939F93AF93BF9380913404909135040E
:10076000A0913604B09137043091330423E0230F75
:100770002D3720F40196A11DB11D05C026E8230FD9
:100780000296A11DB11D20933304809334049093ED
:100790003504A0933604B0933704809138049091C7
:1007A0003904A0913A04B0913B040196A11DB11DFA
:1007B0008093380490933904A0933A04B0933B0497
:1007C000BF91AF919F918F913F912F910F900FBE4D
:1007D0000F901F9018951F920F920FB60F92112431
:1007E0000F931F932F933F934F935F936F937F9339
:1007F0008F939F93AF93BF93CF93DF93EF93FF9329
:100800008091EE0680FF17C08091EE0687FF13C02F
:100810008091C6008E3379F48091EE0682608093D9
:10082000EE068091EE068E7F8093EE068091EE06B6
:100830008F778093EE062091C6008091700390918F
:1008400071032D30A9F02A3099F0222389F08336E4
:10085000910590F4FC01E153FC4F208301969093A5
:10086000710380937003FC01E153FC4F1082B1C10E
:10087000FC01E153FC4F108210927103109270033F
:1008800069E673E08FEC93E00E94FC10892B29F05D
:100890008091EE0688608093EE068091EE0683FFDD
:1008A000ADC061E772E08FEC93E00E94FC1000970E
:1008B000E9F0FC013796AEEFB6E0CD018E5F9640D1
:1008C0002191233211F02D93F8CFFC01E250F94F22
:1008D00010826EEF76E083E290E00E94B601809194
:1008E000EE06877F8093EE060E94280369E772E098
:1008F0008FEC93E00E94FC100097E9F0FC01359624
:10090000A4EFB6E0CD01845F96402191233211F02F
:100910002D93F8CFFC01EC50F94F108264EF76E094
:1009200089E190E00E94B6018091EE06877F809376
:10093000EE060E9428036FE772E08FEC93E00E94BE
:10094000FC100097E9F0FC013496A4EFB6E0CD016D
:10095000845F96402191233211F02D93F8CFFC0152
:10096000EC50F94F108262E773E081E490E00E945E
:10097000B6018091EE06877F8093EE060E942803E1
:1009800064E872E08FEC93E00E94FC100097B1F1F4
:10099000EC01249620E030E0A901E991E332A9F0CE
:1009A000AAE0B0E00E94860F0E2E000CFF0BAF01F4
:1009B000405351098A01550F220B330BA9019801AD
:1009C000260F371F481F591FE8CF2093220130936D
:1009D00023014093240150932501609122017091DD
:1009E000230180912401909125010E944C01809166
:1009F000EE06877F8093EE060E9428038091EE0624
:100A000080FFE7C08091EE0685FF10C08091CF0384
:100A100080538A3058F46FEC73E08CED94E00E94C0
:100A2000F5108091EE068F7D8093EE068091EE06A4
:100A300086FF6BC069E872E08FEC93E00E94FC10C7
:100A4000892B19F01092EF065BC06BE972E08FEC16
:100A500093E00E94FC10892B11F081E04FC06BEAFB
:100A600072E08FEC93E00E94FC10892B11F082E081
:100A700045C06CEB72E08FEC93E00E94FC10892B78
:100A800011F083E03BC06EEC72E08FEC93E00E94CB
:100A9000FC10892B11F084E031C06FED72E08FEC17
:100AA00093E00E94FC10892B11F085E027C065EFD0
:100AB00072E08FEC93E00E94FC10892B11F086E02D
:100AC0001DC067E073E08FEC93E00E94FC10892B5F
:100AD00011F087E013C06AE173E08FEC93E00E94AD
:100AE000FC10892B11F088E009C06CE273E08FECF8
:100AF00093E00E94FC10892B41F089E08093EF067F
:100B00008091EE068F7B8093EE066DE373E08FECB1
:100B100093E00E94FC10009761F0BC01665F7F4F7C
:100B20008CE394E00E94F5108091EE06846080933F
:100B3000EE066BE473E08FEC93E00E94FC100097EC
:100B400051F0BC01665F7F4F85EC93E00E94F51089
:100B500081E08093C40365E573E08FEC93E00E942D
:100B6000FC10892B81F06BE473E08FEC93E00E9422
:100B7000FC10BC016B5E7F4F80EB93E00E94F51090
:100B800081E08093AF036DE573E08FEC93E00E940A
:100B9000FC10892B41F061E08BE00E94D80081E0DD
:100BA0008093AE0304C060E08BE00E94D80060E94F
:100BB00073E08FEC93E00E94FC10892B51F0809140
:100BC000EE0682608093EE068091EE068E7F809323
:100BD000EE06FF91EF91DF91CF91BF91AF919F9181
:100BE0008F917F916F915F914F913F912F911F91C5
:100BF0000F910F900FBE0F901F90189500000000EE
:100C00004EE003C04CE001C04AE02F923F924F9269
:100C10005F926F927F928F929F92AF92BF92CF928C
:100C2000DF92EF92FF920F931F93CF93DF938F93F7
:100C30009F93DB01FC01842F43954295A40FB11DC6
:100C4000E89481909190A190B190C190D190E19061
:100C5000F1900191119121913191419151916191C5
:100C600071919BE10E9070250E9060250E9050259D
:100C70000E9040250E9030250E9020250E901025C8
:100C80000E9000250E90F0240E90E0240E90D024BB
:100C90000E90C0240E90B0240E90A0240E909024AC
:100CA0000E9080248A9509F46894F4E1E82D8490EC
:100CB000EC2DC490E02F0491E42F4491E52F249073
:100CC000E12F5491ED2D1491E92DD490922CE62F23
:100CD0002490E22F3490EE2D6491EA2D2491E22CA1
:100CE000A32CEB2D2490EF2DB490E32FF490E72F5D
:100CF0003491722D0E9070250E9060250E90502527
:100D00000E9040250E9030250E9020250E90102537
:100D10000E9000250E90F0240E90E0240E90D0242A
:100D20000E90C0240E90B0240E90A0240E9090241B
:100D30000E9080242EF5FF91EF9181929192A192D5
:100D4000B192C192D192E192F192019311932193C8
:100D500031934193519361937193DF91CF911F919F
:100D60000F91FF90EF90DF90CF90BF90AF909F904A
:100D70008F907F906F905F904F903F902F9008954D
:100D8000FFE02B2C2A24382C3924E22DE325449033
:100D9000F0E1EA2DE82554905424EB2DE925049048
:100DA0004024682C6B24660C08F469266424B6245D
:100DB0006A2C6924660C08F4692664249624220CA3
:100DC00008F429262524A224330C08F439263524D6
:100DD0008324FFE02F2C2E243C2C3D24E22DE32500
:100DE0004490F0E1EE2DEC2554905424EF2DED25A8
:100DF000049040246C2C6F24660C08F4692664244B
:100E0000F6246E2C6D24660C08F469266424D6241E
:100E1000220C08F429262524E224330C08F4392670
:100E20003524C324FFE0232E2226302E3126E22D46
:100E3000E3254490F0E1E22FE02754905424E32F7F
:100E4000E12704904024602E6326660C08F469268E
:100E500064243625622E6126660C08F46926642413
:100E60001625220C08F4292625242225330C08F403
:100E7000392635240325FFE0272E2626342E352655
:100E8000E22DE3254490F0E1E62FE427549054242A
:100E9000E72FE52704904024642E6726660C08F4AB
:100EA000692664247625662E6526660C08F4692674
:100EB00064245625220C08F4292625246225330CA7
:100EC00008F4392635244325EDCE0000000000004B
:100ED0000000000000000000000000000000000012
:100EE0000000000000000000000000000000000002
:100EF00000000000000000000000000000000000F2
:100F00000009121B242D363F48415A536C657E77E9
:100F10009099828BB4BDA6AFD8D1CAC3FCF5EEE7D9
:100F20003B3229201F160D04737A6168575E454CC9
:100F3000ABA2B9B08F869D94E3EAF1F8C7CED5DCB9
:100F4000767F646D525B40493E372C251A130801A9
:100F5000E6EFF4FDC2CBD0D9AEA7BCB58A83989199
:100F60004D445F5669607B72050C171E2128333A89
:100F7000DDD4CFC6F9F0EBE2959C878EB1B8A3AA79
:100F8000ECE5FEF7C8C1DAD3A4ADB6BF8089929B69
:100F90007C756E6758514A43343D262F1019020B59
:100FA000D7DEC5CCF3FAE1E89F968D84BBB2A9A049
:100FB000474E555C636A71780F061D142B22393039
:100FC0009A938881BEB7ACA5D2DBC0C9F6FFE4ED29
:100FD0000A0318112E273C35424B5059666F747D19
:100FE000A1A8B3BA858C979EE9E0FBF2CDC4DFD609
:100FF0003138232A151C070E79706B625D544F46F9
:101000000004080C1014181C2024282C3034383C00
:101010004044484C5054585C6064686C7074787CF0
:101020008084888C9094989CA0A4A8ACB0B4B8BCE0
:10103000C0C4C8CCD0D4D8DCE0E4E8ECF0F4F8FCD0
:101040001B1F13170B0F03073B3F33372B2F232790
:101050005B5F53574B4F43477B7F73776B6F636780
:101060009B9F93978B8F8387BBBFB3B7ABAFA3A770
:10107000DBDFD3D7CBCFC3C7FBFFF3F7EBEFE3E760
:1010800036323E3A26222E2A16121E1A06020E0A60
:1010900076727E7A66626E6A56525E5A46424E4A50
:1010A000B6B2BEBAA6A2AEAA96929E9A86828E8A40
:1010B000F6F2FEFAE6E2EEEAD6D2DEDAC6C2CECA30
:1010C0002D2925213D3935310D0905011D19151130
:1010D0006D6965617D7975714D4945415D59555120
:1010E000ADA9A5A1BDB9B5B18D8985819D99959110
:1010F000EDE9E5E1FDF9F5F1CDC9C5C1DDD9D5D100
:101100004EE003C04CE001C04AE02F923F924F9264
:101110005F926F927F928F929F92AF92BF92CF9287
:10112000DF92EF92FF920F931F93CF93DF938F93F2
:101130009F93DB01FC01842FE89481909190A19012
:10114000B190C190D190E190F190019111912191D4
:10115000319141915191619171919BE1F6E10D9035
:1011600080240D9090240D90A0240D90B0240D901B
:10117000C0240D90D0240D90E0240D90F0240D900B
:1011800000250D9010250D9020250D9030250D90F7
:1011900040250D9050250D9060250D9070252EF561
:1011A000FF91EF9181929192A192B192C192D192CD
:1011B000E192F192019311932193319341935193D1
:1011C00061937193DF91CF911F910F91FF90EF90F9
:1011D000DF90CF90BF90AF909F908F907F906F9057
:1011E0005F904F903F902F9008958A9509F46894EE
:1011F000E82D8490EC2DC490E02F0491E42F4491CD
:10120000E92D2490ED2D9490E12FD490E52F1491A9
:10121000522DEA2D2490EE2D3490E22FA490E62F4B
:10122000E490222D632DEB2D2490E72FB490E32F33
:101230007491EF2D3491F22C0EF491CF0A2C0B24E3
:10124000402C282C89240824880C08F48926802422
:101250008224392C3A24330C08F439263024932480
:10126000440C08F449264024A4242B24220C08F41E
:1012700029262024B2240E2C0F24402C2C2CCD24E3
:101280000C24CC0C08F4C926C024C2243D2C3E24D6
:10129000330C08F439263024D324440C08F44926AE
:1012A0004024E4242F24220C08F429262024F224AC
:1012B000022E0326402C202E01270026000F08F4C2
:1012C000092700250225312E3226330C08F4392651
:1012D00030241325440C08F44926402424252326D1
:1012E000220C08F4292620243225062E0726402C1D
:1012F000242E45270426440F08F44927402542257B
:10130000352E3626330C08F4392630245325440C68
:1013100008F44926402464252726220C08F42926AF
:10132000202472251CCF00000000000000000000F7
:1013300000000000000000000000000000000000AD
:10134000000000000000000000000000000000009D
:10135000000000000000000000000000000000008D
:10136000000000000000000000000000000000007D
:10137000000000000000000000000000000000006D
:10138000000000000000000000000000000000005D
:10139000000000000000000000000000000000004D
:1013A000000000000000000000000000000000003D
:1013B000000000000000000000000000000000002D
:1013C000000000000000000000000000000000001D
:1013D000000000000000000000000000000000000D
:1013E00000000000000000000000000000000000FD
:1013F00000000000000000000000000000000000ED
:1014000052096AD53036A538BF40A39E81F3D7FB79
:101410007CE339829B2FFF87348E4344C4DEE9CBC3
:10142000547B9432A6C2233DEE4C950B42FAC34E38
:10143000082EA16628D924B2765BA2496D8BD125EE
:1014400072F8F66486689816D4A45CCC5D65B69292
:101450006C704850FDEDB9DA5E154657A78D9D8436
:1014600090D8AB008CBCD30AF7E45805B8B3450656
:10147000D02C1E8FCA3F0F02C1AFBD0301138A6B70
:101480003A9111414F67DCEA97F2CFCEF0B4E673A0
:1014900096AC7422E7AD3585E2F937E81C75DF6E4E
:1014A00047F11A711D29C5896FB7620EAA18BE1BB4
:1014B000FC563E4BC6D279209ADBC0FE78CD5AF45A
:1014C0001FDDA8338807C731B11210592780EC5FA0
:1014D00060517FA919B54A0D2DE57A9F93C99CEFFC
:1014E000A0E03B4DAE2AF5B0C8EBBB3C83539961FD
:1014F000172B047EBA77D626E169146355210C7D3B
:10150000AB0171E060E007C0AB0170E060EC03C0CC
:10151000AB01772760E8EF92FF920F931F93CF9371
:10152000DF93FA01EA01DC01769567956695669589
:10153000262F0D9001922A95E1F76695669563FB3B
:10154000362F762F795F770F770FDF011497262FCD
:10155000E0E0F6E17F0111E04D915D918D919D916B
:101560003217B1F05EF5022F0770043039F5F7013C
:10157000E40FF11D4491F701E50FF11D5491F701BE
:10158000E80FF11D8491F701E90FF11D949116C048
:10159000360FF701E40FF11D0491F701E50FF11D7E
:1015A0004491F701E80FF11D5491F701E90FF11D86
:1015B0008491902F4127110F08F41BE1FD01099040
:1015C00004260192099005260192099008260192AD
:1015D0000990092601922395271709F0BDCFE894B9
:1015E000DF91CF911F910F91FF90EF900895000030
:1015F00000000000000000000000000000000000EB
:10160000637C777BF26B6FC53001672BFED7AB76BF
:10161000CA82C97DFA5947F0ADD4A2AF9CA472C06A
:10162000B7FD9326363FF7CC34A5E5F171D83115D7
:1016300004C723C31896059A071280E2EB27B275F8
:1016400009832C1A1B6E5AA0523BD6B329E32F8470
:1016500053D100ED20FCB15B6ACBBE394A4C58CF68
:10166000D0EFAAFB434D338545F9027F503C9FA83C
:1016700051A3408F929D38F5BCB6DA2110FFF3D20A
:10168000CD0C13EC5F974417C4A77E3D645D1973BE
:1016900060814FDC222A908846EEB814DE5E0BDBB8
:1016A000E0323A0A4906245CC2D3AC629195E479EF
:1016B000E7C8376D8DD54EA96C56F4EA657AAE0849
:1016C000BA78252E1CA6B4C6E8DD741F4BBD8B8AE4
:1016D000703EB5664803F60E613557B986C11D9E4A
:1016E000E1F8981169D98E949B1E87E9CE5528DFC1
:1016F0008CA1890DBFE6426841992D0FB054BB16ED
:10170000FC01DB01CA01009631F04D915081452763
:1017100041930197D1F70895CF93DF931F92CDB7EF
:10172000DEB7789484B5826084BD84B5816084BD61
:1017300085B5826085BD85B5816085BD80916E006F
:10174000816080936E0010928100809181008260A0
:1017500080938100809181008160809381008091DD
:1017600080008160809380008091B10084608093CC
:10177000B1008091B00081608093B00080917A00C8
:10178000846080937A0080917A00826080937A00EE
:1017900080917A00816080937A0080917A008068DD
:1017A00080937A001092C1008091EE068E7F809324
:1017B000EE068091EE068D7F8093EE068091EE0618
:1017C0008B7F8093EE068091EE06877F8093EE06F6
:1017D0008091EE068F7D8093EE068091EE068F7BE2
:1017E0008093EE068091EE068F778093EE068FEF62
:1017F0008093EF061092C00088E98093C10086E8CC
:101800008093C2001092C50087E68093C40078944C
:101810000E94280388E00E94900089E00E949000C6
:101820008BE00E94900060E08BE00E94D80061E0B5
:101830008DE00E94D8002FEF81EE94E0215080408F
:101840009040E1F700C0000060E08DE00E94D80009
:10185000EFEFF0E722E0E150F0402040E1F700C078
:10186000000061E08DE00E94D8008FEF93EDE0E38F
:1018700081509040E040E1F700C0000060E08DE062
:101880000E94D800FFEF20E782E0F1502040804026
:10189000E1F700C0000061E08DE00E94D8009FEFFA
:1018A000E1EEF4E09150E040F040E1F700C00000CC
:1018B00060E08DE00E94D80001E020ED37E040E0DC
:1018C00050E06EE672E081EB91E00E94E001882337
:1018D00099F3F7E8AF2EF0E0BF2EA5EDEA2EA0E0D9
:1018E000FA2EB1ECCB2EB0E0DB2E01E020ED37E09C
:1018F00040E050E064EB71E08FEB91E00E94E0018A
:1019000081112EC0F5018491F7010491F601149123
:101910001123A9F081110E94AF00812F90E0880F60
:10192000991F8B589F4FFC01A591B4918C9108236E
:1019300091E080E009F490E0692F782F02C060E028
:1019400070E0F1E06F2788E00E94D8002FEF89E671
:1019500098E1215080409040E1F700C00000C5CFE1
:101960000E94D602EFEFF3ED20E3E150F04020407B
:10197000E1F700C0000002E020ED37E040E050E079
:101980006EE672E088EC91E00E94E0018091EE0644
:1019900080628093EE0601E020ED37E040E050E009
:1019A0006EE672E08DEC91E00E94E0010E94D602AA
:1019B00020ED37E040E050E06EE672E084ED91E02B
:1019C0000E94E00120ED37E040E050E06EE672E07A
:1019D00086EE91E00E94E00128E833E140E050E02B
:1019E0006EE672E080EF91E00E94E00120ED37E0CA
:1019F00040E050E067E771E081E891E00E94E0019B
:101A000081110AC020E137E240E050E06EE672E06A
:101A10008BE891E00E94E0010E948102882349F056
:101A20000E946302882341F08DEF91E00E94A5019E
:101A300003C00E94A802F6CFE0E86E2E712C69E97F
:101A4000462E60E0562E73EA272E70E0372E0E9455
:101A50002D014B015C01C090F006D090F106E090A2
:101A6000F206F090F3066C157D058E059F0549F092
:101A70000E942D014B015C018C189D08AE08BF0827
:101A800006C00E942D01861A970AA80AB90A8091F9
:101A9000220190912301A0912401B0912501881683
:101AA0009906AA06BB0608F4B8C101E028E833E1AC
:101AB00040E050E06EE672E081E192E00E94E001D9
:101AC0008091EE0682FF9BC161E089E00E94D80010
:101AD0008091EE0680648093EE0628E833E140E0D2
:101AE00050E06CE172E083E292E00E94E0018091BC
:101AF000EE068F7B8093EE068091EF06863009F02C
:101B000072C180E38093F00460E372E080EF94E0C0
:101B10000E94F5106CED74E080EF94E00E94EA10F2
:101B200068E372E080EF94E00E94EA106CE374E0F6
:101B300080EF94E00E94EA108FE392E00E94A501FA
:101B400080EF94E00E94A501E0EFF4E00190002016
:101B5000E9F7319720E2CF01805F9440803A910508
:101B600014F42193F8CF80E280938F0510929005B2
:101B7000E0EFF4E001900020E9F731978F01005F7A
:101B80001440C8018F709927892B09F07BC0F2019E
:101B900085919491079653E0969587955A95E1F72C
:101BA0006C01DD24C6010E94B40F7C01892B09F46D
:101BB00069C0F10125913491C9010196F90144915F
:101BC000442309F45FC0413099F42E5F3F4FFC017C
:101BD0008491882351F0F901459154912E5F3F4F34
:101BE000815040385105A9F736C02250310930C024
:101BF000423079F4FC01859194912D5F3F4FF901BA
:101C0000459154918138910518F54038510500F1FE
:101C100022C0433009F036C0FC0145915491F901CE
:101C2000339685919491F901359665917491295F68
:101C30003F4FF901A590B4904138510548F48038E0
:101C4000910530F0C3010E94A00F8A159B0519F081
:101C50002F5F3F4FB1CFE0E0F0E02491EBE9F0E0FF
:101C6000859094908114910409F4DFC0E7E9F0E0D5
:101C70008591949129830E94B40F5C01298100977A
:101C800009F0E4C00E9408016B017C0148EE842E3B
:101C900043E0942EA12CB12C0E940801DC01CB0161
:101CA0008C199D09AE09BF09883E9340A105B10575
:101CB00058F0F1E08F1A9108A108B10828EEC20E81
:101CC00023E0D21EE11CF11C81149104A104B10493
:101CD00019F765EA75E0A4EAB5E040EF54E0CA01FF
:101CE000805F9440FA012191AF012223F1F0822F0D
:101CF000022E000C990B807F992734E095958795EB
:101D00003A95E1F78A30910514F0895C01C0805D55
:101D10008C932F702A3014F0295C01C0205DFB01E8
:101D200020836E5F7F4F1296DACF880F991FFC01D8
:101D3000EC55FA4F108207E412E0F80181918F010F
:101D4000882319F00E947501F8CF84EA95E00E947B
:101D5000A50102E020ED37E040E050E06EE672E0E1
:101D600088EC91E00E94E0018091EE06806880930B
:101D7000EE0601E028EE33E040E050E06CE572E072
:101D80008EE592E00E94E0018823B9F08091EE0692
:101D90008F778093EE0684EA95E00E9440018AE105
:101DA0000E94390120E137E240E050E069E672E04C
:101DB0008BE592E00E94E00101C080E089830E94EF
:101DC000D60289818823A9F060E088E00E94D800CB
:101DD000FFEF26E781E0F15020408040E1F700C0AE
:101DE000000061E003C00E94A80260E088E00E9459
:101DF000D8008091EE068B7F8093EE0604C060E0F1
:101E000089E00E94D8000E942D016093F006709333
:101E1000F1068093F2069093F30680E090E0892B20
:101E200009F415CE0E9400000ACE80E190E00E94E5
:101E3000B40F5C01892B09F425CF80E1E1E1F1E0E9
:101E4000D50101900D928A95E1F70FC020FD06C0E3
:101E5000BC0181E191E0F401099507C0AC0160E8A3
:101E600070E081E191E0F401099584E01695079511
:101E70008A95E1F7A60160E071E0C7010E94E110D8
:101E800090EF892E94E0992E01501109C0F0A6011F
:101E9000B701C4010E94800BEDE9F0E02591349177
:101EA0002115310521F0B501C401F9010995A601FB
:101EB000B401C7010E94E1108C0C9D1CE5CFE1EA42
:101EC000F0E0259134912115310519F0C501F90192
:101ED0000995C5010E944910C7010E944910D2CE40
:101EE000F999FECF92BD81BDF89A992780B50895E2
:101EF000262FF999FECF1FBA92BD81BD20BD0FB626
:101F0000F894FA9AF99A0FBE019608950E94910FDB
:101F1000A59F900DB49F900DA49F800D911D11243D
:101F20000895A29FB001B39FC001A39F700D811DB2
:101F30001124911DB29F700D811D1124911D0895D2
:101F4000AA1BBB1B51E107C0AA1FBB1FA617B707DF
:101F500010F0A61BB70B881F991F5A95A9F78095FB
:101F60009095BC01CD010895CF93DF938230910508
:101F700010F482E090E0E0916407F091650720E0C2
:101F800030E0C0E0D0E0309711F140815181481736
:101F90005907C0F04817590761F48281938120974F
:101FA00019F09B838A832BC0909365078093640705
:101FB00026C02115310519F04217530718F49A016C
:101FC000BE01DF01EF010280F381E02DDCCF21159E
:101FD000310509F1281B390B2430310590F4129694
:101FE0008D919C9113976115710521F0FB019383ED
:101FF000828304C09093650780936407FD01329645
:1020000044C0FD01E20FF31F8193919322503109E7
:102010002D933C933AC02091620730916307232BA4
:1020200041F42091280130912901309363072093D6
:10203000620720912601309127012115310541F4D5
:102040002DB73EB740912A0150912B01241B350B2F
:10205000E0916207F0916307E217F307A0F42E1BEB
:102060003F0B2817390778F0AC014E5F5F4F2417FC
:10207000350748F04E0F5F1F509363074093620788
:102080008193919302C0E0E0F0E0CF01DF91CF9126
:1020900008950F931F93CF93DF93009709F48CC09B
:1020A000FC01329713821282009164071091650738
:1020B0000115110581F420813181820F931F209138
:1020C0006207309163072817390779F5F0936307A2
:1020D000E093620771C0D80140E050E0AE17BF073F
:1020E00050F412962D913C911397AD0121153105B5
:1020F00009F1D901F3CF9D01DA0133832283608195
:102100007181860F971F8217930769F4EC0128816C
:102110003981260F371F2E5F3F4F318320838A81FD
:102120009B8193838283452B29F4F0936507E09389
:10213000640742C01396FC93EE931297ED01499108
:1021400059919E01240F351FE217F30771F4808126
:102150009181840F951F029611969C938E93828194
:10216000938113969C938E931297E0E0F0E0D80150
:1021700012968D919C911397009719F0F8018C019C
:10218000F6CF8D919C9198012E5F3F4F820F931F48
:1021900020916207309163072817390769F4309757
:1021A00029F4109265071092640702C0138212820C
:1021B0001093630700936207DF91CF911F910F91F6
:1021C0000895FB01DC0102C001900D924150504086
:1021D000D8F70895FB01DC010D900020E9F7119775
:1021E00001900D920020E1F70895FB01DC010190C0
:1021F0000D920020E1F70895FB0151915523A9F0BC
:10220000BF01DC014D9145174111E1F759F4CD01B2
:102210000190002049F04D9140154111C9F3FB0197
:102220004111EFCF81E090E001970895F894FFCF3E
:10223000636F7665724D65547261636B36363939FA
:10224000006578706563746F547261636B363639FC
:102250003900E803000000006607800041542B436A
:10226000495053544152543D22544350222C220091
:1022700041542B435354543D22434D4E4554220068
:1022800041542B4349494352002E0041542B4349AA
:102290004653520053485554204F4B0041542B4352
:1022A000495053485554002B43474154543A203128
:1022B0000041542B43474154543F0041542B434762
:1022C0004154543D3100415445310035322E3430B3
:1022D0002E38312E3138003535353700524E4554C1
:1022E000004154002B435245473A20302C310041E5
:1022F000542B435245473F00415445300041542B35
:1023000047534E0041542B434E4D493D322C322C05
:10231000302C302C300041542B434D47463D31008A
:1023200041542B43474E535057523D3100636F6E1B
:102330006E656374656420746F2073657276657270
:102340000041542B43474E53494E46005354415489
:10235000453A0041542B434950535441545553007E
:102360006465766963653D0026646174613D00645F
:102370006174614750530053657269616C207570D8
:102380006C6F616420646174613A20003E004154C6
:102390002B43495053454E440053454E44204F4B28
:1023A00000444F4D41494E3A00504F52543A00417B
:1023B000504E3A004455523A0053544154453A2045
:1023C000495020494E495449414C005354415445C9
:1023D0003A204950205354415254005354415445DB
:1023E0003A20495020434F4E4649470053544154E8
:1023F000453A2049502047505253414354005354CA
:102400004154453A204950205354415455530053A8
:10241000544154453A2054435020434F4E4E454377
:1024200054494E470053544154453A20434F4E4E71
:10243000454354204F4B0053544154453A20544394
:102440005020434C4F53494E470053544154453A52
:102450002054435020434C4F53454400535441545F
:10246000453A20504450204445414354002B4347B3
:102470004E53494E463A20312C31002B465344529C
:102480004956453A002B46534D454D3A002B534192
:0E2490005042523A20312C31002B434D540063
:00000001FF
